:100000000C9434000C943E000C943E000C943E0082
:100010000C943E000C943E000C943E000C943E0068
:100020000C943E000C943E000C943E000C943E0058
:100030000C943E000C943E000C943E000C943E0048
:100040000C943E000C943E000C943E000C943E0038
:100050000C943E000C943E000C943E000C943E0028
:100060000C943E000C943E0011241FBECFEFD8E04C
:10007000DEBFCDBF0E944E000C9460000C940000C7
:100080001F9906C08FE493EC0197F1F700C00000C0
:1000900083B18095881F8827881F089527982F9AF5
:1000A000259AC0E20E944000813019F485B18C2766
:1000B00085B98FE493EC0197F1F700C00000F2CF0F
:0400C000F894FFCFE2
:00000001FF
