S01500006D756C74695F6578616D706C652E7372656399
S11300000C9434000C943E000C943E000C943E007E
S11300100C943E000C943E000C943E000C943E0064
S11300200C943E000C943E000C943E000C943E0054
S11300300C943E000C943E000C943E000C943E0044
S11300400C943E000C943E000C943E000C943E0034
S11300500C943E000C943E000C943E000C943E0024
S11300600C943E000C943E0011241FBECFEFD8E048
S1130070DEBFCDBF0E9440000C944B000C940000E6
S11300808FEF8AB98BEF84B92A9A1A9B02C05D98C4
S10D0090FCCF5D9AFACFF894FFCF7D
S9030000FC
