:100000000C9434000C943E000C943E000C943E0082
:100010000C943E000C943E000C943E000C943E0068
:100020000C943E000C943E000C943E000C943E0058
:100030000C943E000C943E000C943E000C943E0048
:100040000C943E000C943E000C943E000C943E0038
:100050000C943E000C943E000C943E000C943E0028
:100060000C943E000C943E0011241FBECFEFD8E04C
:10007000DEBFCDBF0E9440000C9455000C940000E0
:1000800014B88FEF8AB91BB880E287BD83E484BDC2
:1000900085B5816085BD189B04C085B5886085BD28
:0E00A000FACF85B5877F85BDF6CFF894FFCFE8
:00000001FF
